:020000040010EA
:20000000006000202900100029001000290010002900100029001000290010008001100079
:20002000B1011000FD01100000224B4B80B5DA619A6140F23E52494B5A6343F202029A6087
:20004000474B5B6B002B56D0464C236803F16042B2F5B03F6ED898076CD1434B1A68A2F5E5
:200060008113403BB3F5F86F64D8D10762D53F4B1A68A2F58113403BB3F5F86F5AD2D20751
:2000800058D43B4B1D68A5F58113403BB3F5F86F50D2AB074ED107224FF04008354B364ECA
:2000A00005F59815DFF8D4909A6005F500655E60002302214FF0FF323048A4F53A3753F8C4
:2000C00007E053F804C00433E64518BF0021B3F5006F02EA0E0240F804CBF0D1022915D0E5
:2000E00001320AD05C2338461B68984728B10022204B9A605E6000F05BF8D8F800304A46A3
:200100004FF40071384698470028F0D1A4F5383004F50064A542CBD800223C241146236899
:2001200098470022236811460E4898470022114B9A605E604FF4811000F055F80028DAD08E
:200140004FF4811000F05AF808B100F049F84FF4811000F045F8CEE780F3004200070040ED
:2001600000E8004200081300040813001C08130020081300000500404E26C8DB2C00002001
:20018000424C5F5345720220084BA0F580129A4209D8036A984206D200F5006098428CBF76
:2001A0001846002070470020704700BFFEFF050008B528231B689847064B074A07498B4249
:2001C00003D3044800F00CF8FEE752F8040B43F8040BF4E70000200050021000180A2000E2
:2001E00034231B68184708B530231B68984718B1C31F5842584108BD0120FCE738B5044676
:20020000FFF7C2FF054608B30368A3F57072B2F5393F1BD84034E218C3F5F864C4F30A04E3
:2002200014442046FFF7DFFF80B12046FFF7ACFF60B1031D0435243053F8041B55F8042B50
:20024000914203D18342F7D1204638BD0024FBE70060002041002000E5092000E70920000A
:20026000E9092000EB092000ED09200080011000000000000000000000000000EF09200099
:20028000F109200000000000F309200041022000014880470148004751022000750220001B
:2002A00070B5402314460D460A461B68A10806469847C0B268B922460849043D264452B168
:2002C000B41A55F8043F2468A34205D18B61043AF5E70330C0B270BD0C20FCE7000F004043
:2002E000074B084A1870597011680029FCD102200549088041F8403C01231360704700BFE0
:200300002800002000C000426006004040F60400274B28491A880B68F0B500FB031094B2C2
:20032000254D264AB5F800C01768254EDFF898E0043035683DBB0D25224A064615604FF6C0
:20034000FF7555602546032D2CD86FF00302A50802FB0542012A00EB850405D930F8256056
:20036000184D02342E61023A164D0AB12278EA604FF2B802EC69944203BF013303F0010302
:200380000B6000200DE0DEF8C450654503D0DEF8C4C01768CDE71568ED1B142DC9D9002069
:2003A0003060F0BD56F8047B043D9761CBE700BF640600402C0000202A0000202400002005
:2003C00080C00042000F00400006004040F604010B4A0230136801FB032300211A1D094BFB
:2003E0005960094959625A64084A58665A60D3F8C420074B1A800122064B1A60704700BFB0
:200400002C00002000060040080C00402A0808002A00002080C00042BFF34F8F0549064BC1
:20042000CA6802F4E0621343CB60BFF34F8F00BFFDE700BF00ED00E00400FA0538B50546D7
:200440000C4609B9002038BD302308461B68984708B10728F6D10B4BA4F580129A420BD881
:20046000E3699C4208D2084A934205D81A682A605A686A600120E6E7044B1A689B882A6070
:20048000AB80F7E7FEFF0500FEFF1500060A2000024A136801331360704700BF24000020E7
:2004A000054A06491368A3F5C343283B8B4284BF034B1360704700BF00000020580ADC027B
:2004C000404B4C004FF0FF322DE98048AB4B8FB0C3F880200124C3F88420C3F88820C3F8C5
:2004E0008021C3F88421C3F8882184F31088A44AA44DA5489542A54A5DD80821996000217E
:20050000A34BA44E9951043E9951203E99511D655A65821A92089A659F4B5C6030BF1A6810
:20052000002AFBD10821954AC2F88811C2F88810BFF34F8FBFF36F8FDB68012B3BD04FF41B
:2005400080734FF4F85200208C490B60934BC3F8E02018609248934A186293481A64821A84
:20056000C2F38F021A66914A1A600A4630BFD3F8E0100029FAD04FF48073C2F88031C2F818
:200580008030BFF34F8FBFF36F8F894B1B69012B19D0884B1A680AB9874A1A60874D884CF3
:2005A0000026641BA41015E052F8041B43F8041B8342F9D3C3E7754B724AF9E743F8042B29
:2005C0008342FBD3E5E7774B0022F9E755F8043B98470136B442F9D100267A4D7A4C641B64
:2005E000A410B4423FD14FF0FF32644B7749C3F88020C3F88420C3F888200423744A93705D
:2006000001235350734A01F18041C2F8B039C2F8303A714A01F5EE11D2F8AC3001F57161BE
:2006200023F4883343F48053C2F8AC3006226B4BDA701A460B68012BFCD16949694E0B6977
:2006400023F00F0343F009030B610221664B19601C6804F00704611E032900F2EB80DFE82B
:2006600001F00782878A55F8043B98470136B8E74FF40043336033685C4A5D49934200F2E7
:20068000F68000220A705648016921F00F010A4302614FF47A704FF080420121B3FBF0F38E
:2006A000D1600021534A013BB3F1807F1160019208D2E020504A5360504B83F823000723DE
:2006C0009160136000224E4BDA619A614D4A536B002BFCD04C4B9A6812F03C0F02BF9A68D0
:2006E00042F001029A6062B60F22DA603E22DA610722DA663168454BDFF834A199428CBF49
:200700000B220022424B02FB03334FEA9122B3FBF2F2404B404903EA02238CBF0122002296
:2007200043EA02133D4A43F00303136000221B4B1A601A6219643A491A661960394B1A60CF
:20074000019B394D1C681020C5F804A0FFF73EFEFFF7DCFD019B1B681B1BB3F57A7F40F239
:20076000C880FFF759FED278304BB3FBF2F381E75B785A1CF8E79B78FBE700BF00E100E087
:20078000FEFF1500680C1000040000200400002080050040A4AA000200B900420006004025
:2007A0000400004004000020381000202B0CCA0000DC00420400002038100020500020004E
:2007C0005000200050002000500020009C4D0202041300405000004200000140BC000140B5
:2007E00000050040000000200001004040420F00040100402400002010E000E000ED00E09C
:2008000080F3004200E80042000700403F42183D0040420F00FFFF00040C0040000C0040B1
:20082000164002002C00002000030040006CDC0211E2B102AE4BAF4A196AAF4BC1F3052198
:20084000D35802AA012B0BD1AC4800F0D9F928B94FF47A73BDF8082053430BE7A84B09E7AA
:20086000A84800F0CDF90028F2D0A74B02E7A74A934203D801220A70002204E7A44A9342FF
:2008800001D80222F7E7A04A934203D804220A700222F8E69F4A934203D807220A700322E0
:2008A000F1E69D4A934203D809220A700522EAE69A4A934201D80B22F7E7914A934206D803
:2008C0000F22002C0A700CBF07220622DBE6944A934203D813220A700722D4E6914A934294
:2008E00095BF17222F220A700A7094BF08220922C9E600283FF427AF0378012B54D05CB2C5
:2009000024B1032B00F04381022165E01C222146854800F098F94FF480118348FFF78EFDA5
:200920004FF481118148FFF789FD80B141F6FE717F4B1A68A2F58013013B8B4230D84FF4FC
:200940008110904701467B48FFF778FD50BB14224FF400611D20744B941E19827649254662
:2009600008604FF6FF700F464860184613F801CB013DC7F80CC0F9D1CB69051903551B0AC7
:200980006B706E4B19680029FCD16D4992B20A806C4A106201221A606B4BC3F804A0CFE639
:2009A0002146D0E71C22D3E7456825F40053B3F5801F10D1D0F8088003F5BE2305EB0802BD
:2009C0009A4208D8C5F30A0408F007031C4302D1B8F5806F05D203216FF05500FFF780FCA4
:2009E000DAE7B8F5006F474628BF4FF4006702AB043007C883E8070021465520FFF770FC9C
:200A00003846FFF7E3FCDFF830914F4BC3F804A0FFF77CFC83460CB12146DDE70028BBD020
:200A2000A8EB0708B8F5006F434628BF4FF400630093B8F1000F06D055202146FFF750FCA3
:200A40000098FFF7C3FC0322C9F80020029A954240F080804FF0FF32C9F804205A460BEBB5
:200A600007018A4238D15A460DF1180C0BF1200E644610685168083203C47245A446F7D168
:200A80002022FF21584600F0DEF807212F4A304B91605360D9F80420284605925C221268DE
:200AA0009047C0B2E8B10330C4B23D44009FB8F1000FAAD154B9204BDA69049B9A4264D1ED
:200AC000202206A90298FFF7EBFB044600221F4B9A601F4A5A609FE752F8040BC9F8180004
:200AE000BFE73A4659462846FFF7DAFB0446DCE7001300402013004028510202B0180800D8
:200B00000024F40090180800404B4C0080841E00C0C62D0000127A0080969800001BB70055
:200B2000002D310100366E010800002010000020240010001A000020000F004000C000429A
:200B4000600600400006004000030040000500404E26C8DB3A460599ABF10400C9F8041077
:200B60007B191AB9D9F8043005939EE7A3EB020E50F804CFDEF800E0F4452AD1C9F818C0B0
:200B8000043AEEE70330C4B2ECE70D249EE730234FF480101B68984708B1072817D16FF059
:200BA00055000021FFF79CFB14203368114A58431368002BFCD1104B98427FF6D2AD0F4B77
:200BC000B0FBF3F02C2311381B689847C9E50E2102E75C22C9F80410126828469047C0B243
:200BE0000028CFD13A4659462846FFF759FB0446B8E700BF00C000427FA8120140420F00E1
:200C00007FB558230C4615461B686A460421984740B96A46042352F8041BCEB2A64203D1CC
:200C2000090C298004B070BD013B13F0FF03F2D10120F7E7FEE7FEE7FEE7FEE7FEE7FEE7B4
:1D0C4000FEE7FEE7FEE703460244934200D1704703F8011BF9E73F3F3F3F3F3F008B
:080C600030F6FF7F01000000E7
:202000000060002065211000337412003574120037741200397412003B741200A421100024
:202020007C21100000000000000000003D7412003F741200000000004174120043741200DB
:20204000457412004574120045741200457412004574120045741200457412004574120028
:20206000457412004574120045741200457412004574120045741200457412004574120008
:202080004574120045741200457412004574120045741200457412004574120045741200E8
:2020A0004574120045741200457412004574120045741200457412004574120045741200C8
:2020C0004574120045741200457412004574120045741200457412004574120045741200A8
:2020E000457412004574120045741200457412009D5710009D5710009D5710009D571000A4
:202100009D5710009D571000D9A811009D5710009D571000457412004574120045741200BC
:20212000457412004574120045741200457412004574120045741200457412004574120047
:202140004574120045741200457412004574120045741200457412009D5710009D571000B5
:202160009D571000024880470248804702480047B5491200ED2D120049481200045C020067
:20218000040000001400000003000000474E550024E22BF01E078290407D0AEB67DFA9AB96
:2021A000469A5420464F5441202001240000000000000000000000000000000074000000C8
:2021C0000000000000000000000000000000000000000000000000000000000000000000FF
:2021E0000000000000000000000000000000000000000000000000000000000000000000DF
:20220000D19F1B1F80F28B9FE81100D6662415B20D004F4E20464F54412052534C313000F2
:202220000000000000000000000000000000000008B522F0D7FD08A3D3E9002322F03CFE25
:202240000022074B22F080FC23F090F823F02EFA40B208BDAFF300807B14AE47E17AD43FDB
:2022600000005B4070B500230546A4B068468DF800308DF887300C4600F098F9092D00F242
:20228000FC80DFE815F00A002B00500073009500D500DD00E500EC00F3009DF80030012B02
:2022A00007D1DDF801202260BDF80520A280012536E006224FF40121714825F0DEF878B33A
:2022C00006224FF401216F4825F0D7F840B34FF40123186820609B88A380E8E79DF80030A2
:2022E000012B0AD10DF107030DF1170253F8041B934244F8041BF9D1D9E71022624960480F
:2023000025F0BBF8002800F0B8805F4A5F4E134603CBB342206061601A4604F10804F6D1CA
:20232000284624B070BD9DF80050012D0AD10DF117030DF1270253F8041B934244F8041B67
:20234000F9D1EDE7102251494D4825F096F8002800F093804D4A4E4D134603CBAB422060EA
:2023600061601A4604F10804F6D1A0E79DF80050012D0AD10DF127030DF1470253F8041B26
:20238000934244F8041BF9D1CAE7202241493C4825F073F8002870D03E4A3F4D134603CB1F
:2023A000AB42206061601A4604F10804F6D17EE79DF80050012D14D122460DF147030DF1BC
:2023C000670153F8040B8B4242F8040BF9D120340DF1870253F8041B934244F8041BF9D11C
:2023E0009EE720222C49264825F047F8002844D02A4E20223146224825F03FF800283CD088
:202400002246254D2B4603CBB342106051601D4602F10802F6D1214A214D2034134603CB12
:20242000AB42206061601A4604F10804F6D13EE79DF88750012D20D1BDF8883023806FE730
:202440009DF88750012D18D19DF88A30237067E79DF88750012D10D19DF88B30F6E79DF88C
:202460008750012D09D19DF88C30EFE79DF88750012D02D19DF88D30E8E7002550E700BFAD
:202480007826120072261200101008002010080030100800A0170800C0170800E01708009D
:2024A00000180800014B1860704700BF04000020431EB3F5FA7F3CBF014B1881704700BFC6
:2024C0000400002042F20F73421E9A429CBF014B5860704704000020031F022B09D8064B2B
:2024E0001B6803F47C73802B08BF0320034B987270470320FAE700BF001400400400002094
:20250000A0F11B03DBB2E02B074B04D8A1F5A472B2F5E06F04D90022FF20DA729A81704768
:20252000D87299810020704704000020003018BF0120014B9873704704000020014BD8734B
:20254000704700BF0400002010B5012383F310880A4B0B4A0B498B4207D300210A4B0B4A7A
:20256000934207D30A4B186010BD52F8044B43F8044BF0E743F8041BF2E700BF0400002002
:20258000247B120024000020240000202C35002024000020014B1B681B6818472400002048
:2025A000014B1B685B68184724000020014B1B689B68184724000020014B1B68DB68184700
:2025C00024000020014B1B681B69184724000020014B1B685B69184724000020014B1B68BC
:2025E0009B69184724000020014B1B68DB69184724000020014B1B681B6A18472400002087
:20260000014B1B685B6A184724000020014B1B689B6A184724000020014B1B68DB6A184799
:2026200024000020014B1B681B6B184724000020014B1B685B6B184724000020014B1B6857
:202640009B6B184724000020014B1B68DB6B184724000020014B1B681B6C18472400002020
:20266000014B1B685B6C184724000020014B1B689B6C184724000020014B1B68DB6C184733
:2026800024000020014B1B681B6D184724000020014B1B685B6D184724000020014B1B68F3
:2026A0009B6D184724000020014B1B68DB6D184724000020014B1B681B6E184724000020BA
:2026C000014B1B685B6E184724000020014B1B689B6E184724000020014B1B68DB6E1847CD
:2026E00024000020014B1B681B6F184724000020014B1B685B6F184724000020014B1B688F
:202700009B6F184724000020014B1B68DB6F184724000020024B1B68D3F88030184700BFE7
:2027200024000020024B1B68D3F88430184700BF24000020024B1B68D3F88830184700BF33
:2027400024000020024B1B68D3F88C30184700BF24000020024B1B68D3F89030184700BF03
:2027600024000020024B1B68D3F89430184700BF24000020024B1B68D3F89830184700BFD3
:2027800024000020024B1B68D3F89C30184700BF24000020024B1B68D3F8A030184700BFA3
:2027A00024000020024B1B68D3F8A430184700BF24000020024B1B68D3F8A830184700BF73
:2027C00024000020003018BF0120014B18707047283500204FF00042064B1A601A68002A8D
:2027E000FCDB054B1868B0F5EA7F34BF00200120704700BF1C1500402015004038B5002483
:20280000174D10220021284624F053FE154800F093FA002001F08CFE02F01EFA19F042FF65
:20282000114B21461C70114B20461C60104B1C70104B1C60FFF764FE2046FFF777FE2046BE
:20284000FFF77CFE01220C4B1A7002F033FF204602F050FB094B2C731C60094B1C6038BD09
:202860005C120020882700206D12002098230020640100200412002004350020300000201D
:202880002C00002038B5EFF31085012484F3108818F084F8204601F04BFE18F040FE02F0F8
:2028A0001DFF40F20112064B20469A81C8221A8102F020FB034B1B68984785F3108838BD9E
:2028C0005C1200208827002038B5EFF31085012484F3108818F062F8204601F029FE18F01B
:2028E0001EFE02F0FBFE054B20461C7302F002FB034B1B68984785F3108838BD5C1200205A
:20290000882700202DE9F8434A4C0F4663890646D90703D5237B4BB9012504E01DF0ACFF58
:2029200005460028F6D12846BDE8F8836389002BF2D102F005FF05460028EDD04FF000424E
:202940003D4B1A601A68002AFCDB1B68228923F078483A4B1B689A4294BF08F1010808F1BF
:20296000020818F015FC814628F07848404602F009FEB9F1FF3F2FD1421C42D1304B1968C1
:2029800094F80D80B8F1000F02D1B1F5487F45DC2B4B18688142A8BF01462A4B1B689942CB
:2029A00088BFC91A0129B7DD274B1B78CBB340F271235943254B48021A680023C90D22F003
:2029C0009BFE2368013801338342A5D83B463246414608F029FCA6E7431C09D1A9EB080124
:2029E00021F07841B1F1806FCAD9A8EB090111E0A9EB000323F07843B3F1806FEED8002B62
:202A0000ECD0A0EB080121F07841B1F1806FB7D9A8EB000121F078414942B1E74FF44871FE
:202A2000BBE7CB174FEAC32CC802642200234CEA5151C4E75C1200201C1500402015004080
:202A400034000020300000202835002028000020EFF31082012383F31088034B59890843EC
:202A6000588182F3108870475C120020EFF31081012383F31088044A538923EA0003538178
:202A800081F31088704700BF5C12002008B5074B5B89DB0709D508F045FC032017F0B6FF5B
:202AA000BDE808400120FFF7E1BF08BD5C120020014B187B704700BF5C120020014B587B1D
:202AC000704700BF5C120020124B2DE910481B7883B10023104C114922680968E0FB01238D
:202AE0004FEA522B4BEAC35BCBF3080323605846BDE810880A4B5A68024402EB002202EB4D
:202B0000C002540AA2EB44225A601E23584310EB040BECE7283500202C000020280000201E
:202B20005C120020054B1B782BB1054B40021B68B0FBF3F07047C003024BF9E72835002081
:202B40002800002040420F0008B50246FFF7EAFF054B18601046FFF7E5FF044B03EA8020E4
:202B6000034B186008BD00BF5C12002000FCFF033C15004008B54FF0884122F047FC22F0C2
:202B800043F9074B002221F0E1FF22F0CFFB054B1860054B1888BDE80840FFF7D5BF00BFCA
:202BA0000000E03F280000200212002038B51D4D10220021284624F07CFC40F20113AB8164
:202BC000C823002418482B8100F0B6F8002001F0AFFC02F041F819F065FD144B21461C7098
:202BE000134B20461C60134B1C70134B1C60FFF787FC2046FFF79AFC2046FFF79FFC01224C
:202C00000E4B1A7002F056FD204602F073F94BF680320B4B2C731C600A4B1C600A4B1A60C4
:202C200038BD00BF5C120020882700206D12002098230020640100200412002004350020F5
:202C4000300000202C00002034000020114B70B503F1200453F8045BA34240F8045BF9D1FB
:202C60000B460D4D05F120062C4603CCB44218605960254603F10803F6D1084C04F1200586
:202C8000234603CBAB42106051601C4602F10802F6D170BD67230020A8340020C8340020DA
:202CA000003018BF0120014B187070476D120020014B1860704700BF3000002008B1014B33
:202CC0001860704734000020024B1860024B1970704700BF9823002064010020014B18603C
:202CE000704700BF04120020014B1870704700BF0435002006289FBF044B03F8101003EBA1
:202D000040035A7094BF00200120704714000020044A13689B07FCD500F1804000F5803095
:202D20000078704770150040024A136843F0070313607047301500402DE9F843634B644A3F
:202D40000362644B64494362644B4361062380F82C30634B8362634B0360634B4360634B1A
:202D6000C3611368FF209BB243F0847313600B6823F4F87343F030030B600B6843F4805368
:202D80000B600B6843F400430B60FFF7C1FFA0F140040B68012C054623F00F0300F2C6809D
:202DA00043F003030B60524B52481B68524A03F47C73802B5149524B40F08881066826F490
:202DC0007F0646F4E2060660066826F4F85646F470660660066826F0FF0646F02F06066040
:202DE000106820F07F0040F00C001060106820F4FE4040F448501060106820F4F81040F452
:202E000000201060106820F07F4010600A6822F47F0242F4E2020A600A6822F4F85242F4D6
:202E200070620A600A6822F0FF0242F031020A601A6822F07F0242F007021A601A6822F4A0
:202E4000FE4242F4D05200271A601A68DFF8D48022F4F81242F480221A601A68294922F014
:202E60007F421A602848652288F8007024F013FB2649274E0B684E2233604B6825487360C1
:202E80000B890A31338124F006FB0123DFF89890652289F80070204988F800301A4824F070
:202EA000FAFA1E494E220B681A4833604B680A31736031F8023C338124F0EDFA6622184B1D
:202EC00089F8007088F800701A7030E0112D100070150040DBB1110074150040EBB1110051
:202EE000292D1000E7B11100E9B111003122100000140040801500409015004084150040CE
:202F0000941500409D261200000001400327120066000140700001405D271200C32712008C
:202F2000A700014016000140BE0001400B6000228C4B8D49012C98BF51F8220002F1010234
:202F400098BF43F8040B282AF4D1884BFF211F46874A03F8011B9342FBD10021DFF8088256
:202F6000DFF85092834E012C00F2F68058F82130C9F8003006233370C020FFF7C9FE00280F
:202F8000FAD1012C07D8A220FFF7C2FEC0F3031343EA0010C85501312829E4D17649774809
:202FA0000A68012C02EA000242F4B6720A600A6892B20A60724A4CF28101136803EA0003B5
:202FC00043F4C173136013689BB243F0D47313604FF4D8726B4B1A604FF4B9726A4B1A80E4
:202FE00094BF41F2816243F2810202331A800022664B012C1A804FF4BD725A8098BF41F66D
:20300000840203F1020398BF5A800023604A012C138053809380D1804FF00701118153818F
:203020004FF4C4725B4B4FF4CC711A809CBF41F281625A800022584B012C1A804FF4C87203
:203040005A8094BF41F6840242F6844204331A800023012C94BF4AF2812048F681004F4ADF
:20306000012C1380538091804D4902F10802088013804FF000024B4B4CF281011A804FF48A
:20308000D0725A804CF281029A8098BF012203F1040398BF5A800023434A012C1380538050
:2030A0009EBF42F68442414B1A800023404A138053809380D180082111814CF60121538125
:2030C0009381D18113825382BDE8F883066826F47F0646F4D4060660066826F4F85646F469
:2030E00070660660066826F0FF0646F02A060660106820F07F0040F008001060106820F404
:20310000FE4040F434501060106820F4F81040F400201060106820F07F4010600A6822F4B2
:203120007F0242F4D4020A600A6822F4F85242F470620A600A6822F0FF0242F02A020A6007
:203140001A6822F07F0242F006021A601A6822F4FE4242F4A85276E6312D14BF06230323C2
:2031600009E700BF40200120980B1200E020012008210120C0000140A01500400000FFFF0B
:20318000A4150040A81500406C210120702101207621012082210120862101208C210120C7
:2031A00092210120962101209E210120A2210120A42101201800014070B505468CB001AA09
:2031C00001460B4818F060F82A4601AB09AE1C4603CCB44210605160234602F10802F6D1AD
:2031E000206810600A9B6B620023AB620CB070BDF413120010B5144617F0F9FF936AABB9B4
:20320000536A082B0CD816D101230B4A52F8230054F8231088420ED802D30133092BF5D1DB
:203220002046BDE81040044918F058B81046BDE81040FFF7C1BF10BDF41312002DE9F041E0
:20324000826A8CB0044692BB00F124013A484FF0000851F8046D50F80459921948F100038A
:20326000561943F100078C420E6007F00102EED10020251F04F120070022034655F8046F04
:20328000901943F10001460846EAC176AF422E6000F00100F0D154F8223013B90132092A9A
:2032A000F9D1C2F1090262620CB0BDE8F081436A082B24D80BD10123204A52F8230054F8F1
:2032C0002310884203D81AD30133092BF5D101AA21461A4817F0D8FF224601AB09AE1D467B
:2032E00003CDB542106051602B4602F10802F6D1286810600A9B63620023A362B8E700225E
:20330000DFF834C004F124014FF00008002751F8046D5CF80459B01A521948F100039F429D
:2033200008BF9642A0EB050034BF012200228C420860E9D19CE700BF14141200F4131200A1
:20334000F8B5876A03460D4614468E6A002F39D1FEB9426A496A914204D314D8C2F109023E
:20336000082A07D922462946184617F08DFF0023A36211E055F8220053F82210884202D8CA
:20338000F0D30132ECE722461946284617F07CFF1BE017F02CFF9762636A082B0CD835D19D
:2033A00001231B4A52F8230054F8231088422DD802D30133092BF5D12046BDE8F840144926
:2033C00017F08CBF46B917F012FF01232046A362BDE8F840FFF7F0BE4A6A416A8A4204D86D
:2033E00010D3C2F10902082A03D9224619462846BBE753F8220055F82210884202D8F4D3F0
:203400000132F0E7224629461846BFE7F8BD00BFF413120010B58CB004462422002101A8DF
:2034200024F047F80023CDE90A33A36A002B36D1636A082B0CD834D10123224A52F82300FE
:2034400054F8231088422CD802D30133092BF5D1636A082B0CD9C3F1090354F8230001A95E
:2034600018F000F8A36AF3B901A9204617F062FFA36A0BBB636A082B0CD812D10123114A02
:2034800052F8230054F8231088420AD802D30133092BF5D10B49204617F020FF01E0012BA4
:2034A000D6D00CB010BD002301A9A362204617F041FF0123A362DBE7012BF2D12046FFF728
:2034C0007BFEEEE7F41312002DE9F047A0B00CAC07460E46154600214822204623F0E9FF48
:2034E0000023CDE91E3307F1240E0DF17408404600225EF8041D06F1240C00235CF804AD90
:20350000EAFB012391469A46036819EB03094AF1000A664540F804995246EED17745A8F1FF
:203520000408E4D121462246002352F8040B10B90133122BF9D1BA6AB06A0027121A18BF13
:203540000122C3F112031E931F9251F8040B08B9092F45D1082B0B9209DC0CD10A23324A7B
:2035600052F8230054F8231088423BD003D254F82730002B3AD020AB03EB87060DF1040C89
:20358000503E0FCEACE80F000FCEACE80F00336801AACCF80030002352F8041B11B90133D9
:2035A000092BF9D1C3F109030A930937112F01A81ED9FFF72FFF2A4601AB09AE1C4603CC68
:2035C000B44210605160234602F10802F6D1206810600A9B6B620B9BAB6220B0BDE8F0879E
:2035E0000137B2E70133122BBAD1C0E70137BEE7FFF710FF01AE0DF1080CBCE80F000FC62C
:203600009CE80F0086E80F0054F8273001AA0993002352F8041B11B90133092BF9D1C3F174
:2036200009030A930137C1E7D0141200F0B5036DFBB0012B05460C4600F12C0600F158070F
:2036400001D8C36C8BB15F49284617F043FF002847D15D49304617F03DFF002841D15B494A
:20366000384617F037FF00283BD12346554A02F12006154603CDB542186059602A4603F183
:203680000803F6D12868504A1860002302F12006C4E9093304F12C03154603CDB5421860D3
:2036A00059602A4603F10803F6D12868012218600023C4E91423454A04F1580302F12006F1
:2036C000154603CDB542186059602A4603F10803F6D1286818600023C4E91F3300207BB0EC
:2036E000F0BD59AA39462846FFF784FD64AA39462846FFF725FE6FAA64A959A8FFF7E4FEA3
:2037000001AA6FA8032117F0C5FE0CAA39463046FFF7DAFE6FAA0CA93046FFF7D5FE17AAB2
:203720006FA92846FFF7D0FE01A964AA0846FFF7CBFE6FAA17A8082117F0ACFE22AA6FA9E4
:2037400064A8FFF7FDFD6FAA0CA922A8FFF7BCFE22466FA8022117F09DFE38AA3146304612
:20376000FFF7B2FE0CA92DAA0846FFF7ADFE43AA2DA938A8FFF7A8FE4EAA43A8082117F0D6
:2037800089FE59AA17A8042117F084FE64AA22A959A8FFF7D5FD6FAA64A901A8FFF794FE39
:2037A00004F12C024EA96FA8FFF7CAFD6FAA0CA92DA8FFF789FE04F1580208216FA817F065
:2037C00069FE8BE74C14120078141200A41412002DE9F04F174600248046ADF5297D00F161
:2037E0002C030193242200F158038A4601F12C0B01F158093846002107F12C06009307F1D4
:20380000580523F056FE24222146C7E90944304623F04FFE24222146C7E91444284623F02E
:2038200048FE24222146C7E91F4403A823F041FE242221460EA8CDE90C4423F03AFE24228B
:20384000214619A8CDE9174423F033FE2422214624A8CDE9224423F02CFE242221462FA895
:20386000CDE92D4423F025FE242221463AA8CDE9384423F01EFE2422214645A8CDE9434424
:2038800023F017FE2422214650A8CDE94E4423F010FE242221465BA8CDE9594423F009FED5
:2038A0002422214666A8CDE9644423F002FE2422214671A8CDE96F4423F0FBFD21462422F5
:2038C0007CA8CDE97A4423F0F4FD9E494046CDE9854417F0FFFD002840F081809A49019888
:2038E00017F0F8FD00287AD19849009817F0F2FD002874D19349504617F0ECFD00283FD1E3
:203900009149584617F0E6FD002839D18F49484617F0E0FD044698BB3B468A4A02F1200EB6
:203920009446BCE80300F44518605960624603F10803F5D1DCF800001860834B03F1200CF5
:203940001A4603CA624530607160134606F10806F6D10123106830603B657C4B03F1200660
:203960001A4603CAB24228606960134605F10805F6D11868286020460DF5297DBDE8F08F78
:20398000524639460AF1240052F8044B824241F8044BF9D1DAF824207A62DAF82820BA621A
:2039A0000BF124025BF8041B934546F8041BF9D1DAF850203A65DAF854207A6509F124024E
:2039C00059F8041B914545F8041BF9D1DAF87C20DAF88030FA67C7F880300024CBE7594943
:2039E000504617F077FD00283BD15749584617F071FDB0BB5549484617F06CFD044680BB43
:203A000043463A4608F1240153F8040B8B4242F8040BF9D1D8F824307B62D8F82830BB62FF
:203A2000019B03F1240253F8041B934246F8041BF9D1D8F85030DDF800A03B65D8F85430B1
:203A40007B650AF124035AF8042B9A4545F8042BF9D1D8F87C30FB67D8F88030C7F8803001
:203A600089E74146504617F035FD044600286FD10199584617F02EFD68B33B46314A02F15A
:203A8000200E9446BCE80300F44518605960624603F10803F5D1DCF8000018602A4B03F1EB
:203AA000200C1A4603CA624530607160134606F10806F6D10123106830603B65234B03F152
:203AC00020061A4603CAB24228606960134605F10805F6D14DE7DAF85020012A38D8DAF8A8
:203AE0004C20002A34D13B46164A02F1200C144603CC644518605960224603F10803F6D1FA
:203B000020681860104B03F120041A4603CAA24230607160134606F10806F6D101231068FF
:203B200030603B65094B03F120041A4603CAA24228606960134605F10805F6D11068286064
:203B40004BE700BF4C14120078141200A414120003AA00995846FFF7B7FC0EAA494601982D
:203B6000FFF7B2FC19AA00995046FFF7ADFC24AA49464046FFF7A8FC24A919A817F0AAFC58
:203B80000446002840D10EA903A817F0A3FCB0B33B465E4A02F1200E9446BCE80300F44533
:203BA00018605960624603F10803F5D1DCF8000018600023C7E90933554B03F1200C1A46EC
:203BC00003CA624530607160134606F10806F6D11068002301223060C7E914234D4B03F12A
:203BE00020061A4603CAB24228606960134605F10805F6D1002310682860FB672EE73946F1
:203C00004046FFF713FDB6E600242FAA0EA903A8FFF796FB3AAA24A919A8FFF791FB50AAA8
:203C200049460098FFF750FC2422002187A823F040FC2146242292A8CDE9904423F039FC7D
:203C4000214624229DA8CDE99B4423F032FC3AA908465BAACDE9A644FFF736FC66AA3AA9AB
:203C60005BA8FFF731FC2FA9084671AAFFF72CFC7CAA24A95BA8FFF727FC9DAA02217CA822
:203C800017F008FC87AA50A971A8FFF71DFC92AA66A987A8FFF754FB45AA9DA992A8FFF7A3
:203CA0004FFB3A4645A93AA8FFF70EFC2146242287A823F0FEFB2146242292A8CDE9904411
:203CC00023F0F7FB214624229DA8CDE99B4423F0F0FB87AA45A97CA8CDE9A644FFF730FB56
:203CE00092AA87A92FA8FFF7EFFB9DAA0EA966A8FFF7EAFB32469DA992A8FFF721FB2A4640
:203D000050A966A8FFF7E0FB012434E64C14120078141200A41412002DE9F04900250646F2
:203D2000ADB0856220220F4616A8294621AC23F0C0FB242229462046209523F0BAFB3346CF
:203D40006A462B9506F1200C154618685968083303C563452A46F7D118684FF0000C2860FE
:203D6000736A834E0BAD09930FCE0FC50FCE0FC556F82039CDF828C02B600823CDE9143CCF
:203D80000123CDE91E332A930BAD099B002B68D12B9B8BB92A9D072D40F2D680082D0BD1DD
:203DA000012354F8231056F82320914204D8C0F0CB800133092BF4D12046FFF72BFB3B46F5
:203DC00029AD224603CAAA4218605960144603F10803F6D1106818602A9B7B622B9BC2E0A1
:203DE000E846EE4609200022DEF8001012EB010B4CF1000C4FEA5B0141EACC7101384EF862
:203E0000041B0BF0010CEED1034658F8042B12B90133092BF9D11E9AC3F1090312F0010C70
:203E2000099338D10DF15808C64609200022DEF8001012EB010B4CF1000C4FEA5B0141EA30
:203E4000CC7101384EF8041B0BF0010CEED1034658F8042B12B90133092BF9D1C3F109033B
:203E60001F93089A12F0010CBAD0139A12F0010C15D0099B149A934204D85ED3C3F10903C0
:203E8000082B51D92946684617F028FA214616A817F050FA79E716A8FFF7D0F9E1E7A84676
:203EA000AE4609200022DEF8001012EB010B4CF1000C4FEA5B0141EACC7101384EF8041BF0
:203EC0000BF0010CEED1034658F8042B12B90133092BF9D1299AC3F1090312F0010C14931D
:203EE0001ED1A046A64609200022DEF8001012EB010B4CF1000C4FEA5B0141EACC71013848
:203F00004EF8041B0BF0010CEED1034658F8042B12B90133092BF9D1C3F109032A93A4E7A8
:203F20002046FFF78BF9A0E755F823105DF82320914202D8A6D30133A2E76946284617F0FB
:203F4000CDF916A92046A3E73B4629AE224603CAB24218605960144603F10803F6D11068A2
:203F6000186000237D62BB622DB0BDE8F08900BFF4131200F0B50020C3B016F059FD934868
:203F80001CF049FD0446002800F017814568002D00F07B8290F84831D0F844515A1E012A0D
:203FA00000F21881012BC5F17F02C5F13F034FEA53134FEA521202F1450203F1450318BF92
:203FC000D0F84C7150F8233000F1080650F8220005F01F0C23FA0CF320FA0CF003F001030F
:203FE00000F0010000EB4300C5F1BF034FEA5313C5F1FF0503F145034FEA551554F8233053
:2040000005F1450554F8251023FA0CF303F0010221FA0CF102EB400301F0010208BF6C4F0F
:2040200012EB43027CD0842303FB0272A2F184031A466D4603F1200C2F46106851680832AC
:2040400003C762453D46F7D110680BAD38605A6A03F14C0C09929A6A0A9203F12C022F46FA
:2040600010685168083203C762453D46F7D1106816AD38601A6D03F1780C14925A6D159233
:2040800003F158022F4610685168083203C762453D46F7D1106831463860DA6FD3F88030EB
:2040A0001F92684621AA2093FFF792FB324621AB29AF1D4603CDBD42106051602B4602F1CD
:2040C0000802F6D1286834AF10602A9B2CADE3622B9B236304F134032A4603CABA42186020
:2040E0005960154603F10803F6D1106837AD1860359B3FAFA365369BE36504F160032A466B
:2041000003CABA4218605960154603F10803F6D110681860409BC4F88430419BC4F88830F9
:20412000D4F84431002B43D0304621A9FFF77EFA334621AA29AE154603CDB54218605960E4
:204140002A4603F10803F6D1286834AE18602A9B2CADE3622B9B236304F134032A4603CAA7
:20416000B24218605960154603F10803F6D1106837AD1860359B3FAEA365369BE36504F152
:2041800060032A4603CAB24218605960154603F10803F6D110681860409BC4F88430419B22
:2041A000C4F88830D4F84431013BC4F8443100E06360214605481CF0E3FB044B1B6813B106
:2041C000002016F023FC43B0F0BD00BF68010020380C1200032B40F0078100F18C05694645
:2041E0002846FFF723FA6E462B4608AF324603CABA4218605960164603F10803F6D1106856
:2042000004F1B8021860099B0BAFC4F8B0300A9B0DF14C0CC4F8B43013463E4603CE664589
:2042200018605960374603F10803F6D130680DF1580C1860149B0DF1780EC4F8DC30159BED
:20424000C4F8E03004F1E4031E46674603CF774530607160BC4606F10806F6D138683060B8
:204260001F99C4F808112099C4F80C11D4F8441101314029C4F8441139D12846D4F84C11B1
:2042800000F1240601F1840550F8047BB04245F8047BF9D1D4F8B00002F12405C1F8A80050
:2042A000D4F8B400C1F8AC0001F1B00052F8046BAA4240F8046BF9D1D4F8DC2003F1240081
:2042C000C1F8D420D4F8E020C1F8D82001F1DC0253F8045B834242F8045BF9D1D4F808310D
:2042E000C1F80031D4F80C31C1F8043161E7802939D12846D4F84C1100F1240601F5C675FF
:2043000050F8047BB04245F8047BF9D1D4F8B00002F12405C1F8B001D4F8B400C1F8B4016E
:2043200001F5DC7052F8046BAA4240F8046BF9D1D4F8DC2003F12400C1F8DC21D4F8E020C3
:20434000C1F8E02101F5F27253F8045B834242F8045BF9D1D4F80831C1F80832D4F80C3176
:20436000C1F80C3225E7C0297FF423AF2846D4F84C1100F1240601F5677550F8047BB042CF
:2043800045F8047BF9D1D4F8B00002F12405C1F8C003D4F8B400C1F8C40301F5727052F861
:2043A000046BAA4240F8046BF9D1D4F8DC2003F12400C1F8EC23D4F8E020C1F8F02301F5FB
:2043C0007D7253F8045B834242F8045BF9D1D4F80831C1F81834D4F80C31C1F81C340423D9
:2043E00084F848310323E0E6042B7FF4E2AE032D09D1D0F84C0100F5847200F18401FFF734
:20440000E7F90523D1E6052D09D1D0F84C0100F5047200F5C671FFF7DBF90623C5E6062D54
:204420000AD1D0F84C0100F5257200F5C6718430FFF7CEF90723B8E6072D09D1D0F84C0178
:2044400000F5467200F52571FFF7C2F90923ACE6A5F10903062B3FF6ACAE84214D43D0F856
:204460004C01A5F18402A5F2A4450244411900F56770FFF7ADF9D4F844310F2B09BF0223E3
:20448000013384F848313F238FE6B0F83E11FF293FF493AE4023FF22B0F83C011CF0FBF920
:2044A00024222946064621A823F003F8242229462CA8CDE92A5522F0FCFF04F108002CAA86
:2044C00021A9CDE9355517F014F8D4F84C0108B116F0C2FB204616F0BFFB3346324622AC45
:2044E000A6F1200054F8041B043A0D0E82F823500D0C82F822500D0A82F8215082F82010A3
:204500008242EFD12DA951F8042B043B140E83F84340140C83F84240140A83F8414083F8B8
:2045200040208342EFD1304616F0FEFB45E600BF38B540B90E481CF01FFABDE838400D4963
:20454000002016F057BA002016F072FA084C2368002BEFD020461CF05EFA0546D0F84C019F
:2045600008B116F079FB284616F076FBEFE700BF68010020753F10002DE9F04FADF5077DC6
:20458000804602AE00204FAD2C46374602904F905A90A1F1200C887F91F81FE0000400EB03
:2045A0000E6091F81CE00439704491F821E08C4500EB0E2047F8040F907F92F81FE04FEA80
:2045C000004000EB0E6092F81CE004F10404704492F81DE0A3F1040300EB0E20206093F8C5
:2045E000220093F823E04FEA004000EB0E6093F820E0A2F10402704493F821E000EB0E20BC
:20460000E062C8D1002356F8042B12B90133092BF9D1C3F1090A0023CDF82CA055F8042B2B
:2046200012B90133092BF9D1C3F10903589300235AAA52F8041B11B90133092BF9D1002422
:20464000C3F10903242221460DA863935994649422F02FFF2422214618A8CDE9164422F08E
:2046600028FF2422214623A8CDE9214422F021FF242221462EA8CDE92C4422F01AFF242234
:20468000214639A8CDE9374422F013FF2422214644A8CDE9424422F00CFF2422214665A8D1
:2046A000CDE94D4422F005FF5AA908460DAACDE96E44FEF709FF4FA9084618AAFEF704FF30
:2046C00023AA18A94FA8FEF7FFFE4FA908462EAAFEF790FD39AA4FA92EA8FEF78BFD44AAA7
:2046E00039A923A8FEF72CFE65AA9F4944A8FEF781FD242265A90DA822F0BFFE074600284B
:2047000040F0308103214FF4A87016F04FFABDF84032C0F84C71A0F83C31BDF8443239469F
:20472000A0F83E31044680F84881202244A822F0C0FE4FF0010C65AE4FAD0FCD0FC60FCD01
:204740000FC62B68DDF860B13360599B70AE5AAD6F93CDF8B8B101930FCD0FC6CDF830C134
:204760000FCD0FC62B68DDF88C91DDF890E1336044AD7BAECDF8E491CDF8E8E10FCD0FC697
:204780000FCD04F18C050FC62A46C6F800C065ABCDE984C76DAF1E4603CEBE421060516071
:2047A000334602F10802F6D1306804F1B8061060019BC4F8B0B0C4F8B430334670AF0DF50F
:2047C000F07C3A4603CA624518605960174603F10803F6D1106804F1E40718603B46C4E927
:2047E000379E0DF5F67C0DF5037E624603CA724518605960944603F10803F6D1106802AACC
:204800001860002301209646C4E942030DF1280904F588739446BCE80300CC451860596028
:20482000624603F10803F5D1DCF8000024221860DEF82830C4F834A1C4F83831002144A888
:2048400022F037FE0DF5887C04F108030DF5987E624603CA724518605960944603F10803BD
:20486000F6D110680022186001230DF5887CC4E90B324C9304F13403624603CA724518609C
:204880005960944603F10803F6D1106801211860002304F16002C4E916134C9344AB9C46AD
:2048A000BCE80300F44510605160634602F10802F5D1DCF80000002310600122C4E9212310
:2048C0003F22C4E950320923B8F1020F63603DD1032140F2BC7016F069F90346C4F84C0155
:2048E00005F1240255F8041B954243F8041BF9D1D4F8B03006F124024362D4F8B430836232
:2049000000F12C0356F8041B964243F8041BF9D1D4F8DC3000F158020365D4F8E03007F1AF
:20492000240143653B4653F8045B8B4242F8045BF9D1D4F80831C367D4F80C31C0F88030AF
:20494000032384F848310023C4F84431214607481CF016F8002016F059F800200DF5077DFB
:20496000BDE8F08F1220F9E72014120068010020002138B50E4D2C6804B938BDB4F83E3168
:20498000834212D10A4822461CF068F8D4F84C0108B116F061F9204616F05EF9286800289C
:2049A000EBD1BDE8384016F043B821462468E3E76801002007B5054BCDE900120146044A6E
:2049C0000120FFF7D9FD03B05DF804FB3D2812001D28120010B5044600295AD1FDF7E0FDE1
:2049E000030A20706370030C000EA370E070FDF7D7FD030A20716371030C000EA371E0710B
:204A0000FDF7CEFD030A20726372030C000EA372E072FDF7C5FD030A20736373030C000E96
:204A2000A373E073FDF7BCFD030A20746374030C000EA374E074FDF7B3FD030A2075637542
:204A4000030C000EA375E075FDF7AAFD030A20766376030C000EA376E076FDF7A1FD030A8A
:204A60006377030CA37704F120031A462077000EE07712F8011D11B9A242FAD1AEE7054A3A
:204A800013F8010D12F801198842A7D801D3A342F6D110BD7C28120038B540F6030330F83C
:204AA000082C05469A42A0F10C040DD040F604039A421DD06FF400631A44052A13D8DFE812
:204AC00002F031312748124010F8043C3F2B11D8013BDBB22949D808095CA3EBC00341FA1A
:204AE00003F3D907E6D42046BDE838401BF005BF3E23EDE7572B0BD8403BDBB21F4AD908E8
:204B00000A44127AA3EBC10342FA03F3DA07EAD515F8040C00F040F90028E4D0437803F0C7
:204B2000030309E035F8040C30B300F0FFF80028D9D08378C3F30113012B0ED0E3B1022B1E
:204B4000D1D135F8063C072BCDD81B0243F005030AE0287800F030F9DEE735F8063C072B0C
:204B6000C1D81B0243F009039BB225F8063C2846BDE8384016F0D8B80823F6E7B501002095
:204B800040F6050230F8083C10B5934204460DD040F60702934203D134F8063C072B2DD91D
:204BA000A4F10C00BDE810401BF0A7BE30F8040C00F0BCF80028F3D0837803F00F03082BF5
:204BC000EED801A252F823F0ED4B1000994B1000ED4B1000994B1000A14B1000A14B10009F
:204BE000A14B1000A14B1000074C1000002324F8063C2046BDE8104016F096B81B0243F0DA
:204C000001039BB2F3E70323F1E700BF022910B503D0032907D0002010BD03680B4A1360C6
:204C200043685360F7E70268094B1A60426809485A600822197810F8014B013A214312F09B
:204C4000FF0203F8011BF5D1E5E700BFBD010020B50100208528120008B51022002105481B
:204C600022F027FC03210448FFF7D0FFBDE8084000F004B8B50100207D2812000022024B35
:204C80001A605A601A8170478C23002040B139B1B0F57F7F06D9044B58809980002070474B
:204CA00012207047112070478C23002038B50546002444F0010016F01BF97F2809D104F52F
:204CC0008074A4B2B4F5006FF3D1034B00201D7000E00C2038BD00BF8C230020034B1A7844
:204CE00012B11A8901321A81704700BF8C230020044A1389834292BF00231B1A9BB2138102
:204D0000704700BF8C230020074B1A7832B198881B89984205D9C01A80B270474FF6FF7094
:204D200070470020704700BF8C23002030B5C0F30905800A012811D0032811D0042811D004
:204D4000052811D0082811D03F2820D10523114A02EBC30358685C8898B930BD0023F6E7C4
:204D60000123F4E70223F2E70323F0E70423EEE730F823200133C2F30902AA4202D10846D1
:204D8000EBE700239AB2944200EB8301F0D80020E3E700BF201512000022064B13F8121035
:204DA000814202D103EB420070470132092AF5D1002070478D2812000022064B13F812100C
:204DC000814202D103EB4200704701320C2AF5D1002070479F281200014B1868704700BF35
:204DE000380000202DE9F74F3F4F83464FF00008BA46FC684CB9FB6823B13C4A136843F08D
:204E00008053136003B0BDE8F08F2268238A00929A0B5FD0C3F30515002D5BD05E464FF0CD
:204E20000009A27D03F00F010A44A2756A1E23F47C7545EA0215ADB22582C5F30132AD0B63
:204E40005EB9224641462A481BF008FE2246494650461BF039FE44463CE0314620460192E4
:204E600016F05FFB0028ECD00528019A40F2712302D1B1463668E3E7718AB6F814C0B4F805
:204E800014E08C44BCFBF3F0B168014403FB10C0864538BF0131012A1FD141F0010121F035
:204EA0007841012DA160E4D9D4F80CC0ACEB010020F07840B0F1806F98BF0146608A88BFF6
:204EC000A1EB0C01B0FBF3F084BF21F0784149428842CEDDA046009C8CE7002ADFD101319D
:204EE00021F00101DBE700BF38000020001500404400002010B5094C20461BF03DFD04F153
:204F00000C001BF039FD04F114001BF035FD0023A3604FF0FF33E36110BD00BF380000203F
:204F2000014601481BF02CBD4C0000200146002201481BF078BD00BF4C00002010B5044655
:204F400048B10146002204481BF06DFD2046BDE8104015F081BE10BD4C00002038B5074C16
:204F600004F10C05E36803B938BD28461BF053FD436A002BF6D09847F4E700BF38000020F7
:204F80002DE9F74FB1F800E00091BEF1000F00F0B7804A6893B2002B00F0B2805C4C90F842
:204FA0000EB0D4F81480BBF1010F454603F1FF330CBF8689067D1FFA82F90193002D00F0C4
:204FC0009A80764580F09A80448AFF2C05D10020009B1E8103B0BDE8F08FAF88A7B32B892D
:204FE00093B3B5F80AC0028A94452DD0B5F80CC077453A4628BF7246A44507D1BCF1010FC0
:2050000026D1B5F80EC0C48AA44521D009EB0304944273DCEC8801331444013CB4FBF2FCFC
:2050200002FB1C44A4B2BEFBF2FC02FB1CEC23441FFA8CFC9BB2BCF1000F05D1B7FBF2FC8A
:2050400002FB1C77BFB287B133462D681E46B5E709EB0304944251DCB5F806C0013BBCFBA5
:20506000F2F402FB14C4A4B2DDE7B6FBF2F702FB17670199BFB207EB010CBC421FFA8CFC9D
:2050800043D8BB4203D2644513D863453AD3BBF1010F2ED05C1CB4FBF2F302FB13439BB274
:2050A0009E421FD2047D03F00102ECB1F2B14546CCE7BC4201D16345E9D9934207D3B3FB93
:2050C000F2FA02FB1A3A1FFA8AFABA45DFD26245BAD8BCFBF2F702FB17CC1FFA8CFCA44503
:2050E000B2D3D4E71344DAE7002AE0D001339BB2DDE77346DBE77645FFF469AF032069E785
:20510000012067E7BC42D8D3C1E76445BFD9D2E7380000204FF00042064B1A601A68002A85
:20512000FCDB1868044B1B68692B98BF013020F0784070471C15004020150040F8B54FF0D9
:20514000FF333D493D4DCB61FFF7E4FF0C68002C49D0A268677E8E68D31B23F07843CB6182
:2051600026B3F37D13B396F816E094F816C0E64505D2B4F810C01CF4006F18BF337EB6F906
:205180001460B4F91440341BB4F5C87FC8BF0133DBB29F420AD2D31A23F078431A1A22F055
:2051A0007842B2F1806F19D8C2B1CB61FFF7B2FFCB69234AC31A934203D8431C23F0784311
:2051C000CB61CA691F4B1A602B681A0615D480221D4B1A602B6813432B600EE0013020F0C9
:2051E0007840C861E2E7CB690133DFD180222B6823F080032B60144B1A60144D2A781AB9E8
:20520000C0F380602870F8BD4301F9D44FF000664A69002AF4D09188D488B6FBF1F301FB51
:20522000031303F17843234493FBF1F401FB1433D3801268EDE700BF380000200C15004073
:20524000FEFFFF031816004018150040293500202DE9F04F85B0054615F032FBEFF310837A
:205260000293012383F310886A7E1A447A4B0244D3F8089022F078429A46B9F1000F15D069
:2052800099F8171091B1131A23F07843B3F1806F84BF831A23F0784301F10101C9B288BF22
:2052A0005B429942C4BF0A1822F07842B5F810805FEA983305D0C8F30131012914D142F0B1
:2052C0000102A968881A20F07840B0F1806F14D9511A31F0784110D073B90120029B83F34E
:2052E000108805B0BDE8F08F0029EAD1013222F0784222F00102E4E7AA60012B14D9D5E999
:205300000210421A22F07842B2F1806F88BF0A1A40F27120698A88BF22F07842B1FBF0F100
:2053200088BF52429142D8DCDAF8002000240192B9F1000F18BF4A4627461646A346C8F3D5
:205340000138D6B131462846039316F0EAF8A0B10528039B40F271224CD095F816C0B17D9C
:205360008C452ED9B1452CD000F0FD00002C08BF374601340128E4B26BD18CB1621ED2B295
:20538000394635481BF04FFBDFF8D0803E6839464046013C1BF0F4FA14F0FF043746F5D16A
:2053A000BBF1000F4ED02A4659462B481BF08CFBDAF80C00002891D02846FFF713FD002005
:2053C0008CE7002B89D0718AB48AAF8A0C44B4FBF2F0B168014402FB1040874238BF0131E6
:2053E000B8F1010F25D141F001010024274621F07841A960012B15D9D5E9020CACEB0001E9
:2054000021F07841B1F1806F88BFA0EB0C01688A88BF21F07841B0FBF2F088BF4942884226
:205420003FF75BAFB1450BD0002C08BFB346366887E7B8F1000FD8D1013121F00101D4E702
:20544000019E7EE7294604481BF0DFFAFFF776FEAEE7012BD0D8E7E738000020440000204C
:2054600070B50546EFF31086012383F3108808B9002005E0114CA368834204D10020A0602A
:2054800086F3108870BD2368984205D120461BF0C2FAFFF753FEEBE70022014620461BF073
:2054A000C2FA02460028E3D1294604F10C001BF0BAFA0028DCD10220E2E700BF3800002006
:2054C0002DE9F0472C4C2568A66815F0F9F90746BEB18DB3B27DAB7D9A4202D22B8A1B059D
:2054E00035D4F27DAB68DB1B23F07843B3F1806F01D89A4205DB0023A360336A0BB1304640
:205500009847CDB1DFF87090DFF874A009F10C086A7EAB689B1A23F07843DA1B22F078421F
:20552000524516D948461BF076FA014640461BF027FA2568002DEBD1E36823B10F4A13687A
:2055400043F080531360BDE8F047FFF7F7BD327EC8E7BB42F0D108481BF05DFAA368054627
:205560001BB11B6A0BB130469847EB69A560002BE2D028469847DFE73800002000150040D3
:20558000FEFFFF03024B9A6802B9D869704700BF38000020F0B5448807880C80BC4214D97C
:2055A00000224FF6FF75214B5B69D6B29BB9012E1DD8837A002B36D0B4FBF3F253439BB23B
:2055C0009F4202D89C4228BF0B804368022B38BF02234B60F0BDB3F80AC0068AB44503D0A3
:2055E0009E88B54228BF35461B680132DDE7AC4203D3B4FBF5F36B43E1E722464FF6FF73C2
:20560000B5FBF2F602FB1656B6B2002E08BF1346A2F1020292B214BF002601269742CFD858
:20562000002EEDD0CCE74FF6FF73CBE738000020F8B51D4B1D4D1A682C6822F480721A60F4
:205640001A6842F000421A601E68F60FFCD1184F6CB1A368012003F00F0303F1006303F57E
:2056600090439B001E8005F00FF82C6844B90E4A136843F480731360BDE8F840FFF720BF6F
:20568000B4F878000828E3D0A37D1E2B08D85C224243D25B03EB52331F2B28BF1F23A3758C
:2056A000012103F029FCD3E700150040281200204A22012008B509F009FB002002F010F8E6
:2056C00006F006F8002001F0D7F80022024B1A60BDE8084015F09EBF5015004010B5EFF372
:2056E0001084012383F310884FF00042104B1A601A68002AFCDB18680E4B0F4A1B6803440F
:2057000010681844FCF746FF0C4B186808B1FCF741FF02F0F9F8012001F0E2FF16F03BFDA6
:20572000012001F0A9F809F0D1FA84F3108810BD1C1500402015004024150040580000203F
:20574000024B1868B0FA80F04009704728120020054B1A6832B99A6822B91869003018BFE6
:205760000120704701207047281200200923C370042383701323437000230370064B1A6854
:20578000120ECA701A68120C8A701A68120A4A701B680B70704700BF0415004070B53C4D42
:2057A0003C4E3468002C71D0600703D504232B6015F009FDE10705D501232B60FDF766F996
:2057C000FFF77EFE220603D580232B60FFF778FE23070CD50823A0072B6048BF02234FF0EA
:2057E000000044BF2B6024F0020404F04DFFE1051DD54FF48073A2072B6042BF02232B60CE
:2058000024F0020404F076FF00283BD02046FFF70FFF08232B604FF480732B604FF400733B
:205820002B60022324F442742B6024F00204A30703D502232B6004F04DFFA00504D54FF412
:2058400000732B60FFF78AFB610603D540232B601BF00FF8E20603D510232B6016F07AF89A
:20586000A3069ED50C4A20461368013313600B4A0B4B196813680B43136020232B60FFF702
:20588000D7FE8DE7012004F0FFFED0E770BD00BF181500401015004058120020BC220020B0
:2058A000601500400623094A30B503FB002000234D1C15F8134011F81320013342EA042206
:2058C000032B20F8022BF4D130BD00BF2C2501200623094A30B503FB002000234D1C15F85A
:2058E000134011F81320013342EA0422032B20F8022BF4D130BD00BF68250120F0B50C262A
:2059000095B00BAC0D4622464643754BF35A03F1202303F5803303F1200C1746186859689A
:20592000083303C763453A46F7D140F676421B883B80BDF84610A1F10A039BB2934200F268
:20594000C58040F67A40BDF842309A1F92B2824200F2BC80BDF84420B2F5FA7F80F0B6801D
:2059600002FB0333B3EB810F80F0B0809DF84D3003F01F03053B0B2B00F2A880052112A88F
:2059800015F05CFE012840F2A180BDF84230002B00F09C809DF83F10002900F097805A1E42
:2059A000082A28BF0822914200F29080BDF840209A4200F28B800DF10E0016F029FE002880
:2059C00040F08480AB0500F18380464BF55AADB2002D7DD0342205F118039BB203F120234B
:2059E00003F5803318680B909B88A380A5F2A453B3FBF2F3DBB25A433B4BD15AD35A01F081
:205A0000010203F0020313438DF81E3000230DF10E0200939DF81E10204601F0C7FC002899
:205A200054D1BDF80E209DF81E10204601F042FD002847D194E80300BDF842300690ADF8E4
:205A40001030BDF84430BDF80E00ADF81230BDF84630ADF81650ADF814309DF84D30ADF85D
:205A60001C105A0903F01F038DF82630DDF832308DF82720CDF81F30BDF836301B4DADF868
:205A800023301B4BF35AC3F3C0138DF8253006F009FA80B92146BDF80E30AA6C04A802F05D
:205AA00023FE0146A86430B104A805F079FF0121A86C15F0DDFF002312A9BDF80E00AB64B1
:205AC00008F008FF0021084615F0DAF915B0F0BD074B0025F35AC3F380138DF81E3095E7B2
:205AE000BC290120BE290120A4250120C0220020B82901202DE9F04F0C264643DFF8C08281
:205B0000DFF8C09236F8085036F8093085B003F1202303F58033186805F00F0500909B881C
:205B2000ADF80430A04B1A699B46927A012A01D0012D1AD1DBF80840002C40F099809B48A9
:205B40001AF0D3FF0A2800F0908021460C2015F02DF801460098C1F80500BDF80430934819
:205B6000A1F809300D711AF00BFF914B012DF45AA3F1080336F803A036F80930A4B203F148
:205B800006039BB203F1202303F580339A881868ADF80C2036F809201FFA8AFA02F1202231
:205BA00002F580320290577940F08480DBF81020127A012A7ED936F8082012067AD55B7904
:205BC00003F0C003402B75D124B10AF4C063B3F5C06F6FD10A2001F0ABFB002845D0002231
:205BE0001223114640F604001AF055FE0B234FF0010A03706F4B80F801A00546F05A6E4B76
:205C0000C0B2DB699847687436F80830291D03F00F03AB7005F10B02A4B304F118039BB290
:205C200003F1202303F580331868A4F2A45468609B8807F0C0078B803423B4FBF3F4E4B23D
:205C40005C435E4B402FE35A029803EA0A0308BF43F00203EB70BDF80C30C5F80B00938096
:205C60000123AB722846FEF717FF05B0BDE8F08F611D68461AF04CFF10B12379AB42F4D002
:205C8000246859E736F8093003F1202303F58033186868609B8802988B8036F80830C5F8BC
:205CA0000B00C3F38013EB70BDF80C30938085F80AA0D7E7012001F03BFB0028D5D0002215
:205CC0002B23114640F604001AF0E5FD01234FF0020B4370374B80F800B00546F05A364B16
:205CE000C0B2DB69984785F82A0036F8083003F00F035B451ED0062B1ED0AB70AB78012BE6
:205D00001DD10023AB722A1D24B10AF4C06ABAF5007F2BD136F8093003F1202303F580339E
:205D2000196869609B88938036F80830C3F38013EB7097E70323E0E785F802B0DEE736F84C
:205D4000083005F10B001B0A063BDBB21F2B88BF1F23AB7236F80910AA7A063189B201F158
:205D6000202101F5803121F096FBCCE704F118039BB203F1202303F580331968A4F2A45498
:205D800069609B8807F0C00793803423B4FBF3F4E4B25C43094B402FE35A03F0010308BF66
:205DA00043F00203C4E700BFC0220020C8220020BE290120BA29012088270020A425012070
:205DC000B8290120BC290120F0B50C2491B06F464443474B0546E35A03AA03F1202303F573
:205DE000803318689B880090BB80424B1B8803F1202303F5803303F1100C164618685968C3
:205E0000083303C663453246F7D1186830609B88B380394BE25A92B2002A5CD0342102F18E
:205E200018039BB203F1202303F5803318680B909B88ADF83030A2F2A453B3FBF1F3DBB22B
:205E400059432E4BC85ACB5A00F0010103F002030B438DF83230BDF81630294CADF824305E
:205E6000BDF81830ADF82A20ADF82630BDF81A30ADF828309DF82130590903F01F038DF85D
:205E80003A30A36C8DF83B10FBB1B4F846209DF832100BA801F00EFBB8B9B4F8460006F01E
:205EA00001F880B9B4F846102B4609AAA06C02F08BFA0146A06430B109A805F071FD0121A5
:205EC000A06C15F0D5FD0023A3640021084614F0D7FF11B0F0BD0B4B97E80300E35A0B904E
:205EE000C3F380138DF83230ADF83010B3E700BFBC29012020270120BE290120A4250120D4
:205F0000C0220020B82901202DE9F0470546C0B00F46EFF310844FF0010A8AF31088834880
:205F20001AF079FD804684F3108881481AF073FD0646B8F1000F00F0F680002800F0F380D4
:205F40008288B8F806107B4B7B4C23F8321081887A4A002032F8313043F4004322F831301A
:205F6000052114F08DFF764AD4F81490136843F480231360B9F1000F1BD14946242014F0F7
:205F800015FE24224946606121F093FA4FF400626369DA824FF4E1229A614FF4C06283F8CC
:205FA0001C9083F821A0674B1A8040F2046223F8082C42F234029742AB7895F80190624F91
:205FC00060D1072B14D801229A4012F0F60F28D112F0090F0CD05D4903F001000A6822F45D
:205FE000005343EA40330B600B6843F480530B606978AB78B28843EA012027F832002A78DC
:20600000272A06D829B1072B03D8EB78591E012922D90021084614F033FF302040B0BDE8E1
:20602000F087013BDBB2062B96BF494A0021D15C68464A4621F03DFAB8F806004A4600F1FC
:206040002020694600F5803021F025FA3F4A136823F480531360CBE70C253E48B18805FB79
:206060000101012002F010FCA064A16C002956D1084614F005FF324A1F20136823F4802358
:206080001360CBE7072B14D801229A4012F0F60F22D112F0090F0CD02C4903F001000A68F5
:2060A00022F4005343EA40330B600B6843F480530B606978AB78B28843EA012027F83200A7
:2060C0002A78272A02D809B1072B20D90021084614F0D6FE1220A1E7013BDBB2062B96BFBE
:2060E0001B4A0021D15C68464A4621F0E2F9B8F806004A4600F12020694600F5803021F0E7
:20610000CAF9124A136823F480531360D1E700230C251048B18805FB01011846A2E70020E2
:2061200084F84E007AE7072078E700BFC4270020BC270020E0260120C0220020E22601208F
:20614000001500402E270120DE26012000160040B7281200CC270020F8B52C4C05466669B6
:206160000F46DEB93146242014F020FD24223146606121F09EF94FF400626369DA824FF421
:20618000E1229A61012283F821204FF4C0621E771F4B1A8040F2046223F8082C1D4A0521B0
:2061A0001368002043F48023136014F069FE42F21D039F421AD12978272905D9002108462E
:2061C00014F05EFE3020F8BD00231A46184602F0D9FBA064A16CA1B90E4A0846136823F410
:2061E0008023136014F04CFE1F20ECE742F233039F42EFD129782729E0D8AB786A7801204F
:20620000E5E70123002084F84E30DCE7C02200202E27012000150040F8B541880388044699
:206220008B4201D912208BE0427B072AFAD8827B032AF7D8027912F0FB0F00F09280901E2A
:20624000012801D89F2BEDD96379032BEAD8A379012BE7D8012A02D0B1F5804FE2D8424D1E
:206260006E69DEB93146242014F0A0FC24223146686121F01EF94FF400626B69DA824FF48F
:20628000E1229A61012283F821204FF4C0621E77364B1A8040F2046223F8082C07226B6928
:2062A0001A77012283F8212021790429BAD8DFE801F04A03484F03001A7740F601432C4FF0
:2062C000E61D3B80A179304601F00EF898B93B88A2799BB223F0800343EAC2133B80254B3A
:2062E000D4F807201B8803F1202303F580331A60B4F80B209A8022796B69042A04D162885F
:206300001A832288DA8202E0002283F82120A2796B6904F10D0083F82020224652F8071F96
:206320001961928801219A826B696279DA7715F085F900283FF476AF00206B69627B9A76A7
:20634000F8BD06221A771A7F062A1CBF00221A771A7F062A02D00AB102221A77A27BDA7600
:20636000CDE71F2B6FE700BFC02200202E2701201E27012020270120F8B5037807461F2B05
:2063800036D81C4C1C4D6669D6B93146242014F00DFC24223146606121F08BF84FF4006241
:2063A0006369DA824FF4E1229A6101221E7783F821204FF4C06340F204622B800F4B1A8063
:2063C0003A7863695A7742B10D4B791C188800F1202000F5803021F05EF8002062692B8813
:2063E000527FDBB20632D2B243EA02232B80F8BD1220FCE7C02200202E27012026270120D6
:2064000030270120F8B5037807461F2B36D81C4C1C4D6669D6B93146242014F0C7FB242241
:206420003146606121F045F84FF400626369DA824FF4E1229A61012283F821204FF4C06284
:206440001E77114B1A8040F204632B803A7863699A7742B10D4B791C188800F1202000F538
:20646000803021F018F8002062692B88927FDBB20632D2B243EA02232B80F8BD1220FCE78C
:20648000C0220020262701202E270120282701208288438870B59A42044636D801780129D5
:2064A00033D843F6FC71043A92B28A422DD8043B9BB28B4229D8C379032B26D8144D95F828
:2064C0006320D20704D4012B1FD883799B071CD42E693EB931460C2014F068FB2861066050
:2064E00046608660E2792B691A7262889A80A288DA8022785A72A179012AD97203D140F60D
:206500000342044B1A80002000E0122070BD00BFC02200201E27012038B50024114DA0B206
:2065200029460134FFF7D4F90A2CF8D100240D4DA0B229460134FFF7B5F90A2CF8D10A4A8A
:206540000A49138823F400531B041B0C22F8343B8A42F6D10022064B83F8652083F866200D
:2065600038BD00BFBE281200A4250120DC260120C022002038B50D4604460A4800F07CFE1A
:2065800045B1012D0AD0084A92F86630013382F8663038BD2146FFF785F9F4E72146FFF73F
:2065A00097F9F0E7BE281200C022002010B50C4600F062FE09280AD8012C074908D1FFF7B4
:2065C00087F9064A92F86630013B82F8663010BDFFF768F9F5E700BFBE281200C0220020C6
:2065E00001297FB506460D4630D8002215F04CF8024658BB174C94F86530092B28D8009088
:2066000002232946304600F0D1FE0B2803D029463046FFF7AFFF94F865300DF10F020133BE
:206620002946304684F8653000F00AFF58B134229DF80F3008495A43535A9BB223F40053E6
:2066400043F400535352002004B070BD1220FBE70720F9E7C0220020A425012030B50129F4
:2066600085B005460C4602D9122005B030BD0DF10F0215F009F80028F6D09DF80F3003B30C
:206680000022012300922146284600F08FFE0DF10E022146284600F0D3FE50B134229DF840
:2066A0000E300A495A43535A23F400531B041B0C5352074A002092F86530013B82F86530CF
:2066C000D3E721462846FFF771FFE0E7A4250120C022002030B48378C278417843EA0222EF
:2066E0000378224C43EA012343EA0243204A00F1200513608379C279417943EA022203793D
:2067000043EA012343EA02431A4A1360837AC27A417A43EA0222037A43EA012343EA02435A
:20672000154A1360837BC27B417B43EA0222037B43EA012343EA0243104A136000F110032D
:20674000224618685968083303C2AB421446F7D130BC4FF4E8720A4B10201A600123094A82
:206760001360094A82F84C30FCF772B9D0210120E4150040E8150040EC150040F015004031
:20678000F4150040E0150040C0220020F8B5304C012014F04DF994F8C860002E47D1204685
:2067A0001AF039F9054650B301892A4FCBB2012B4FF0110324D042F21702314640F6010061
:2067C0001AF069F80646DFF890C0421C634603CBBB42106051609C4602F10802F6D100231F
:2067E00030463370FEF758F928461AF086F825683DB3FEF7A5FFF0B9012384F8C830F8BD38
:20680000324605201AF047F80646DFF84CC0421C634603CBBB42106051609C4602F1080291
:20682000F6D100233046337014F07EFADCE7002384F8C830DBE705F10C00BDE8F840FFF7E8
:2068400049BF1020FCF712F984F84C50D7E700BFC0220020F0210120E0210120044B05497A
:206860001A88C2F30E0223F8342B8B42F8D17047A4250120DC26012070B5664C00286CD1A1
:20688000654914F0D1FA6549012014F0B3F800210846002514F0F4FA032384F84D5084F8BC
:2068A0004E30FBF77DFE4FF0FF33C4F832301F2384F8430084F83630A4F84450A564FFF74C
:2068C0002BFE94F86330564E23F0010384F863304FF46173A4F85C30FFF7C0FF294609201A
:2068E00014F000FC94F86330E56323F0020384F863301023A4F85E304A4BC6F80350A6F170
:206900003400A36384F8C75084F84C5084F8C85025611AF031F8444BC4F84F50A6F8175056
:206920001B6865611A0A84F8553084F856201A0C1B0E84F858303D4B84F857201B683C3E2C
:2069400084F85930C3F3072384F85A3030461AF062F8D8B119F0D1FFF8E763695BB11868D9
:2069600008B119F0CAFF6369586808B119F0C5FF606914F071F9206908B114F06DF92C4823
:2069800015F0B2FB2B4815F0AFFB80E7214819F0F3FF284819F0F0FF274A284B10685168DB
:2069A00003C390681860264BDA7A1AB19B890BB12285638501232349052084F83730FBF718
:2069C00051FC08B96423A3851F490620FBF74AFC10B9082384F831301C490720FBF742FCA7
:2069E00010B9F62384F82E3019490820FBF73AFC10B90A2384F82F3016490920FBF732FCB0
:206A000010B9C42384F83030002384F86230A4F8603070BDC0220020501512008D671000E3
:206A2000FC2200200303031F2415004028150040C8220020D822002050251200E02200202D
:206A400004000020EC220020F1220020EE220020EF220020F02200202DE9F04F017889B017
:206A60000129044603D9122009B0BDE8F08F00F1010A0DF10E02504600F0E2FC0028F2D15E
:206A80009DF80E20062A7BD01022014601900DEB020020F00EFD102204F117080DEB020158
:206AA000404620F0EAFC1022E51D071C0DEB02018346284618BF012720F0DFFC019B061C29
:206AC0000DF10F022178814650468DF80F3018BF012614F0D9FD9DF80E30014603EB4302C8
:206AE00003EB8203274A9B00D4F801001A441060B4F805309380BBF1000F10D09DF80E202A
:206B000002EB420302EB83021F4B9200134404F1270258F8040B904543F8040BF9D1B9F16E
:206B2000000F11D028469DF80E2002EB420302EB8302164B9200134405F1100250F8045B97
:206B4000904243F8045BF9D134229DF80E309DF80F005A43730043EA80302378034343EA37
:206B6000413343EA871343EA471343EA86036FEA43436FEA534306499BB25352002073E714
:206B8000072071E7BC250120C2250120A6250120A425012007B50178012912D80DF1070246
:206BA000013000F04DFC70B1342300209DF80720064953435A5AC2F30E025A5203B05DF805
:206BC00004FB1220FAE70220F8E700BFA425012037B50C460178154601292CD80DF10702B2
:206BE000013000F02DFC58B134239DF80720134953435B5A35B119061BD400232360A380CB
:206C0000022014E01B07F8D51223002002EB420102EB810203EB820303F2A4539BB203F1DA
:206C2000202303F580331A6822609B88A38003B030BD2E23E9E71220F9E700BFA4250120A0
:206C40004AF2B711028808B5531E9BB28B4214D80B4BA3F85C20FBF7A3FC0A4BC0F3150057
:206C600040F000401860FBF79BFC074BC0F3150040F000401860002008BD1220FCE700BFE8
:206C8000C0220020481600404C16004010B50B4C94F86310CB070FD511F002010CD164227A
:206CA000B4F85C3009205A4314F0BEF994F8633043F0020384F8633010BD00BFC022002027
:206CC00038B50578414C002D77D06569DDB92946242013F06BFF24222946606120F0E9FB5B
:206CE0004FF400626369DA824FF4E1229A61012283F821204FF4C0621D77354B1A8040F262
:206D0000046223F8082C3349334819F001FF28B16369DB7FDB0701D5122534E06369D87F99
:206D200000F0EEFA6069037F062BF5D801A252F823F000BF516D1000AF6D1000516D1000AB
:206D4000196D1000196D1000196D1000516D1000427F0632D2B243EA02231D4A1380027F59
:206D60001E4B022A93F82C300FD100221C4900F0F9FDA0640028CFD00121002014F080F8C1
:206D80000025FFF783FF284638BD827F15490632D2B2120242F004020A80134A02F10C01A5
:206DA00000F0E0FDA0640028E6D11F25EBE70B4B002293F82C300D49D9E72846042114F001
:206DC0005FF8A06C00F0E4FEDDE700BFC02200202E270120D82912000F230020882700204F
:206DE0004428002026270120382800202C28002070B505780646214C65B90421284614F095
:206E00003FF8A06C00F0BCFF04F1080015F06CF9284670BD256945B929460C2013F0C6FE94
:206E2000174B20614360058185721649164819F06FFE30B12369DA7AD20702D55B7A012BAA
:206E40001AD023697278D87A9A7200F059FA2069417A51B1012907D0FFF718FF022100209A
:206E600014F00EF80025D3E7084900F0A7FEA0640028F1D11F25CBE71225C9E7C022002076
:206E800010000800D82912000F2300202C2800207FB50446454815F0BBFB0546002840F098
:206EA00083802379012B0ED0009003463F4A6179A01D00F07BFA064680B1FFF7E7FE3546F8
:206EC000284604B070BD3A4B93F8662032B993F86530002B14BF0B260C26EEE761882288F9
:206EE000914201D91226E8E7E089238A9842F9D843F6FC76043989B2B142F3D8043A92B2BA
:206F0000B242EFD8E18A228B9142EBD80528E9D9B3F5486FE6D840F67640A18AA1F10A0247
:206F200092B28242DED8628AB2F5FA7FDAD202FB0333B3EB810FD5D21E491F4819F0E8FD17
:206F4000237B08B1DE07CDD4194E03F0020396F86320D00705D413B96379990703D51225DD
:206F6000AEE7002BF8D061798A070ED50DF10F02A01D00F065FA0028F1D034239DF80F201C
:206F800053430E4A9B5A9B07E9D50321002013F077FFB6F846200A49204600F007FFB0641A
:206FA00000288DD11F2688E7092686E706230020C0220020D82912000F230020A425012061
:206FC0002C2800200122024B002083F837207047C022002038B5264D0C4695F8C730022BBF
:206FE0001ED1082000F0A4F9B0B122233E22002140F6040019F04FFC09230370002321460F
:20700000437004F12002831C51F8044B914243F8044BF9D1FDF740FD002085F8C70038BDBE
:20702000012BF9D1072000F083F90028F4D042233E22002140F6040019F02DFC08230370EB
:2070400000232146437004F12002831C51F8044B914243F8044BF9D100F1220301F1200254
:2070600051F8044B914243F8044BF9D1D2E700BFC022002010B5114C94F86320A06C22F088
:20708000020284F86320A8B101F02AFD002013F02FFF68B16422B4F85C3000215A4309206D
:2070A00013F0C2FF94F8633043F0020384F86330002010BD04F07AF9E8E700BFC0220020C2
:2070C00038B50A4C0D4620460C3919F059FC94F84C302BB9FEF734FB20B9012384F8C83090
:2070E000012038BD2846FFF7F5FAF9E7C022002010B5002013F0FCFE042823D1124C94F859
:207100006230013B022B13D80021B4F8600014F073FA94F86230032B05D100224FF6FF71F2
:20712000022004F01BFB002384F8623015F089FA0021084613F0A4FE0023A3644FF6FF7375
:20714000A4F84630002010BDC02200202DE9F0411046154613F0CCFE7F2859D05C222C0AE5
:2071600062434349434F535A57F8248023F440731B041B0C5352284698F8A56013F0B8FE3B
:207180000F2808D057F82430B3F8603013F4807F14BF08263E26C20718D598F8A730013B3E
:2071A000162B13D8DFE803F00C37121212124D4D4D3C3C3C3C3C3C3C3C3C3C5C5C5C5C00AF
:2071C00008F16D022146304615F025F8334622460021284614F0F2FF294640F2011013F02E
:2071E00081FF29464FF4817013F07CFF294640F2031013F077FF29464FF4827013F072FFA9
:2072000040F20510294613F06DFF204604F07CFA0020BDE8F0812146304604F093FCD5E727
:2072200057F8243093F8A91011F0100104D03146204615F038F8C9E73246204604F0A0FC51
:20724000C4E7022000F074F80028BFD0B8F860305B06BBD500222146304604F043FCB5E74F
:20726000002321461A46304615F03FF8AEE700BFF4210120940100202DE9F34111F00104E3
:20728000064617D10627DFF8588007FB048318689B88009031466846A5B2ADF8043019F0C4
:2072A00037FC18B901340A2CEFD12546284602B0BDE8F08100240627DFF8288007FB0483A5
:2072C00018689B88009031466846A5B2ADF8043019F01EFC0028E9D101340A2CEED1E4E72C
:2072E0002C2501206825012008B5044919F010FC002814BF1220002008BD00BFD82912006B
:20730000012801D0032803D10121034804F02CB800210248FAE700BF0F230020152300207A
:207320000268024B1A6082889A80704715230020054BC208134493F83B30A0EBC20043FAF8
:2073400000F000F001007047C0220020024B1A6802601B7903717047F2220020024A1368A8
:2073600003605368436070470429120010B50E4C6369186848B10C30FEF7FEFF6369186878
:2073800019F0BBFA002263691A606369586848B10C30FFF737F86369586819F0AEFA002282
:2073A00063695A6010BD00BFC02200202DE9F843054617461E46164BDDF820809C6901F090
:2073C000010914B92046BDE8F88325B9012E02D165732468F5E7211D284619F099FB0028BF
:2073E000F7D0237B4B45F4D10FB163893B80012E09D100236373B8F1000F02D0637B88F882
:2074000000300B20DFE7022EF5D10123F2E700BFC0220020032303700B70084B93F838204D
:20742000D2075CBF93F83920027093F8382092075CBF93F83A300B70704700BFC022002083
:2074400006232DE9F74F80468946154600244FF0340A164FDFF858B013700AFB04F3DA5B1E
:20746000A6B2D20B19D003EB0B02DB5B92E8030003F0010309F001029A420090ADF8041028
:207480000FD14146684619F043FB50B12C70B01F18BF012003B0BDE8F08F2B78062B08BFBA
:2074A0002C700134062CD8D12646F0E7A4250120BC2501202DE9F74305460F4610200021B0
:2074C000904613F073FB07F0010604460DF1070231462846FFF7B4FF58B134229DF807305D
:2074E00015495A43535A9BB223F4804343F480435352FCB12B6839466360AB882846238157
:20750000A4F80A802673FFF7B7FE09288CBF0020012021466073094819F032FA607B04F1B4
:20752000040920B148463146FFF740F8002003B0BDE8F0830720FAE7A4250120D822002043
:20754000174B37B59C6914B9022003B030BD6389834201D02468F6E7251D0DF10702217B79
:207560002846FFF76DFF50B134229DF807300D495A43535A23F480431B041B0C5352002291
:207580002146094819F04FFA637B1BB1217B2846FEF7F0FF204613F05FFB0020D5E700BFEB
:2075A000C0220020A4250120D822002070B5002088B013F09DFC0128274C1FD163691E7FB7
:2075C000012E1BD193F82150C5B91A4652F8100F93F8203092880390ADF81020294601AAD6
:2075E0003C208DF8123004F0B9F83146A06C2A4601F05AFC2946284613F042FC94F84E3061
:20760000032B02D194F84D3013B3042342F21F02002140F6010019F03EF900230F4A84F88E
:207620004D30136823F48023136094F84E3013B10B4B1B889BB24380032384F84E3000240A
:207640000470FDF729FA22462146012019F03DF9FFF71CFB08B070BDC02200200015004027
:207660001625012070B5054600200C46164613F03FFC03280BD1A9070ED1F6B12046FEF79A
:20768000A3FB0125204607F099FB284670BD10F0FB0F12D005281FD0EA060ED10C236343EE
:2076A0000E4A9B5A03F00F02062A06D80123934013F0570F03D19B0607D40025E2E70228A3
:2076C000FBD12046FEF716FAF7E70128F5D129462046FEF713F9F0E70025D6E7B829012015
:2076E00070B504468AB018B97349022013F09CFB724A73491368002023F0F00343F0E00369
:2077000013600B6823F4FF7323F0010343F0D2030B600B6823F07F7323F4403343F0DC73EC
:207720000B6040F23A31674B19601368694623F400131360136823F480131360FAF792FD37
:2077400028B9614B18689B880090ADF8043002A90320FAF787FD0146002840F09F805B48EC
:20776000FDF738F99DF802309DF803209DF8011043EA02229DF8003043EA012343EA0243E6
:20778000534A40F6B41113609DF805209DF8043043EA02234F4A136052F8283C43F40073A5
:2077A00042F8283C07224C4B1A6040F22C521A624FF4AD625A6240F60A229A6240F2A45231
:2077C000C3F89020454B9A7AD31E032B88BF0322434B1A604BF6D662424B1A8048F689623E
:2077E0005A8045F255529A805522DA8000233E4A138053809380D38013813C4A11603C4A5E
:2078000092F82C103B4A11804FF4005122F80E1C39490A88A1F2EA4122F080021204120C1A
:20782000A1F8EA24354A1380A2F84030A2F84230A2F84430A2F84630A2F84830A2F59C62B4
:207840001380538004328A42FAD1204601F074FB03F0C8FC2A4A0120138823F480731B041F
:207860001B0C1380138823F480631B041B0C1380138823F400731B041B0C138003F01CFFD4
:20788000204A1368A2F5807223F48053C2F80031136843F4807313600AB070BD0B4D02ABA1
:2078A0000AAE1A4603CAB24228606960134605F10805F6D156E700BFA8151200001500405B
:2078C000101600400C150040D2291200672300202415004028150040B0150040040000200B
:2078E00044160040D8240120EE2401202C15004088270020E42401202A250120E024012090
:20790000D024012000160040114B1A6822F480721A601A6842F000421A601A68002AFCDBA9
:207920001A6842F080421A60094A136813F08043FBD1084A08491380538004328A42FAD121
:20794000064A13604FF0FF32054B1A60704700BF0015004000200120402001200C1500403C
:20796000181500402DE9F74F9846037F0446012B8A46174640F0DB8090F82130002B40F07C
:20798000D7804FF4006240F2E2460283228BE18A082002F037FD0546002800F0C4806E4B46
:2079A00000F1280993F8630010F0010000F0C5800DF1070294F8201004F11000FFF740FD86
:2079C00040B19DF8070000EB400300EB8300800000F2A450237F012B40F0AD80021C18BFF8
:2079E00001225E490B889BB223F01F0343F008030B805B4B9B7803F0010BC3F3400EC3F36D
:207A0000800C237F012B40F09A8094F82130002B14BF0423052343EA8B2343EA4E2343EAF2
:207A20000C23DFF868C143F47043ACF80030031C18BF012394F81FC094F81BE0BCF1010F90
:207A40008CBF9C464FF0000C42EA0E2242EA4302444B42EA8C021A80434A138823F0800340
:207A60001B041B0C13800B8823F480731B041B0C0B800B8823F400731B041B0C0B800023AE
:207A800022F80A3C22F8083C22F8063C22F8043C22F8023C354B002853D0188048F2270254
:207AA000334B1FFA88F11A80552223F8042C0023304A2846138022F8021C4FF4005122F8D6
:207AC000101C22F8143CD381138208222A4B51461A80A27E294B1A60294B1B68002B18BF50
:207AE0001E46284B1E6085F8808002F0B5FF1FB13946284602F0B0FF484602F025FFEFF32A
:207B00001084012181F31088284613F0B1FFAB68AB6503F5006323F07843EB650023A5F826
:207B2000603084F31088284603B0BDE8F08F012340F2DC562AE7012253E7024651E70423C4
:207B400069E7224652F8100F186092889A8094F820200D4B1A80A1E7C0220020D4240120F7
:207B600098261200E02401202A250120F8240120E2240120E6240120EC240120B0150040DB
:207B800004000020C0150040FE240120D0240120012210B51146044601F090FA50B994F8BB
:207BA0008230054A43F0100384F88230136843F00073136010BD00BF001500402DE9F04194
:207BC00000258AB00746884608202946ADF804500295ADF80C5002F0CBF80446002800F0EC
:207BE000B080BB8801A9ADF81230ADF81030FB8804A8ADF818300593574B8DF81E500893B8
:207C00004FF49A638DF81A50ADF82630FDF7C2FC01A904A8ADF81C508DF82450FDF7B0F98B
:207C20000646002840F09180BDF81230059AA4F87C3001A92046ADF80430029214F0C3F974
:207C4000464AB8F1000F13889BB223F01F0343F008031380424BD97814BF0923082301F0F5
:207C60000105C1F3400043EA8523C1F3800143EA402343EA01233B4943F470430B803A4BA1
:207C8000397A93F8633003F0010343EA0123F97A012994BF0021012143EA810333490B80E0
:207CA00048F22701324B1980552123F8041C40F2E2436382029B2F4963652F4B1E805E808C
